:020000040800F2
:10000000F00D0020CD0100083D480008A343000882
:1000100000000000000000000000000000000000E0
:10002000000000000000000000000000414800083F
:1000300000000000000000003F480008434800089E
:10004000DF01000800000000DF010008DF010008F8
:10005000DF010008DF010008DF010008DF01000800
:1000600000000000DF010008DF010008DF010008D8
:10007000DF010008DF010008DF01000800000000C8
:10008000DF0100080000000000000000DF010008A0
:1000900000000000DF010008DF010008DF010008A8
:1000A00000000000DF01000800000000CD4E000845
:1000B00000F002F800F05EF80CA030C808382418F0
:1000C0002D18A246671EAB4654465D46AC4201D190
:1000D00000F050F87E460F3E0FCCB6460126334264
:1000E00000D0FB1AA246AB4633431847A07B000062
:1000F000C07B0000103A02D378C878C1FAD8520702
:1001000001D330C830C101D504680C6070470000CD
:100110000023002400250026103A01D378C1FBD823
:10012000520700D330C100D50B60704710B5662967
:1001300002D107F007FB10BD642902D100F098F945
:1001400010BD732902D101F0B7F910BD002010BD18
:100150001FB501F015FD04000020002107F006F98D
:10016000401C60600020002107F0EAF8E0601FBD3D
:1001700010B510BD02F062F91146FFF7E9FF05F076
:1001800045FD02F019FC03B4FFF7F2FF03BC02F0D7
:1001900063FC000070B505460C46164602E00FCC25
:1001A0000FC5103E102EFAD2082E02D303CC03C581
:1001B000083E042E07D301CC01C5361F03E0217889
:1001C0002970641C6D1C761EF9D270BD07488047EB
:1001D00007480047FEE7FEE7FEE7FEE7FEE7FEE72B
:1001E00004480549054A064B70470000C748000807
:1001F000B1000008F0010020F00D0020F007002001
:10020000F007002070B500252C46AD1A9C4112DA8B
:1002100000252C462D1A8C4102DA00F02BF870BD17
:10022000002440428C41214600F024F80024404242
:100230008C41214619E000252C462D1A8C410ADA02
:10024000002452429C41234600F014F8002440420E
:100250008C41214670BD002452429C4140422346BD
:1002600000248C41214600F005F8002452429C41B4
:10027000234670BDFEB5054610460C46184373D0A4
:10028000AE468C460020AD1A01469C4167D36646B7
:10029000002701243D46B61A9D4102D313463A4633
:1002A0002124654676462F04360C3E432D0CB61AA3
:1002B0009D4104D3150C1B042B43120410346546D6
:1002C00076462F06360A3E432D0AB61A9D4104D3C0
:1002D000150E1B022B4312020834654676462F0783
:1002E00036093E432D09B61A9D4104D3150F1B0153
:1002F0002B431201241D65467646AF07B6083E43E0
:10030000AD08B61A9D4104D3950F9B002B43920074
:10031000A41C65467646EF0776083E436D08B61A7C
:100320009D411AD392185B41641C16E00018764672
:1003300065464941B71A9D410191009009D3604635
:10034000B11A98418E468446009801990025401CB8
:100350006941DD0752082A435B08641EE6D57246F0
:10036000634603B0F0BDFFE700200146C046C0462B
:100370002A462346F5E700000FB4054910B503AA45
:10038000029801F09DF810BC08BC04B018470000AA
:100390002C0000200FB47CB50C0009AA009001D0FD
:1003A0000019401E094B7B4469460190089801F0F2
:1003B00050F8002C054603D06946002001F05CF897
:1003C00028467CBC08BC04B018470000D9100000C7
:1003D00070B5044685690068C10601D5302600E085
:1003E0002026C00707D070BD62683046A1689047DC
:1003F000206A401C20626D1EF6D570BD70B50446A3
:1004000085690078C00707D170BD6268A1682020A7
:100410009047206A401C20626D1EF6D570BD70B5F5
:100420000C460546012A05D02878800600D5EA69E1
:10043000002302E0012305E05B1C934202D2E05C52
:100440000028F9D1A869E618C01AA861286AC0185E
:1004500028622846FFF7BCFF04E06A682078A96894
:10046000641C9047B442F8D32846FFF7C7FF70BD1D
:10047000F7B5002575291068009914A611D0C0465B
:10048000C046002802DA404211A608E00099096837
:100490008A0701D50FA602E0490704D50EA601255B
:1004A00001E0C046C046009F0024243704E001F06C
:1004B000A9F830313955641C0028F8D12B46324652
:1004C0002146009800F05BFDFEBD0000000000002A
:1004D0002D0000002B00000020000000F3B50446B2
:1004E000002081B020622046E1688847002872D051
:1004F000252802D06268A1689AE0E16820460026BB
:10050000884705460020E0610746A0612A2D0AD0F1
:10051000284604F0CBFD002827D0B8000019303D54
:100520000090856119E00298BA00121902C8916121
:1005300002902046E1688847012F054617D1E069FF
:1005400000281FDA202086431CE000980A218069D9
:10055000484300994019303888612046E16888474F
:10056000054604F0A3FD0028EFD1012F0AD02E2D5F
:1005700008D12046E16888470546202006437F1CB5
:10058000022FC3DBA069002803DA4042A0610120EA
:100590000643F00701D0102086436C2D0AD0682D49
:1005A00008D04C2D3CD06A2D38D0742D38D07A2DFF
:1005B00036D016E0E1682F4620468847B842054607
:1005C0000AD16C2F2AD001208002E1680643204620
:1005D0008847054605E02FE06C2F1DD0FF20013035
:1005E0000643002D28D028464138192803D8012079
:1005F000C00206432035204626602946029A164648
:10060000FFF794FD002810D001280BD0F61DF0084C
:10061000C0000830029066E74020E1E78020D4E780
:100620000020D2E7361D02965DE762682846A16881
:100630009047206A401C55E7206AFEBD70B506460B
:1006400000F08EFC0468054630460A22002100F0C6
:10065000A1FF2C6070BD401ECAB24178401C8A4286
:1006600002D00029F9D100207047000030B5441CA9
:1006700003E00178401C00290DD08107F9D10B4B14
:10068000DD0104C8D11A91432940FAD0001B0A06A3
:1006900003D0C01E30BD001B30BD0A0401D0801E37
:1006A00030BD0902FCD0401E30BD00000101010137
:1006B0000346F0B50B439B072DD1244DEF01042ACF
:1006C00029D308C810C95E1B9E43121F3E4017D095
:1006D000D8B2E1B2401A3106014310D198B2A1B2AA
:1006E000401A310401430AD118022102000A090A02
:1006F000401A3102014302D1180E210E401AF0BDFA
:10070000A342DCD018BA21BA884201D90120F0BD39
:100710000020C043F0BD002A01D10020F0BD0378C5
:100720000C78401C491C002B0DD0A3420BD1521E4B
:1007300009D003780C78401C491C002B03D0A3423D
:1007400001D1521EEBD1181BF0BD000001010101C7
:1007500001E004C0091F0429FBD28B0701D50280E8
:10076000801CC90700D00270704700290BD0C30756
:1007700002D00270401C491E022904D3830702D50F
:100780000280801C891EE3E70022EEE70022DFE7FB
:10079000F8B507460B4639461943890713D1164C5D
:1007A000E601042A0FD302CB0D1B8D43354202D143
:1007B00002C0121FF5E7CBB20370401C521E002B83
:1007C00013D0090AF7E7002A14D01978521E5B1CCF
:1007D0000170401C002908D0002A0BD01978521E45
:1007E0005B1C0170401C0029EDD1002A02D011468B
:1007F000FFF7CAFF3846F8BD01010101024670B596
:100800000A4392072AD11E4DEE0104C808C9541BA1
:100810009443344017D0D0B2D9B2401A21060143D4
:1008200010D190B299B2401A210401430AD11002AA
:100830001902000A090A401A2102014302D1100ECE
:10084000190E401A70BD9A42DFD010BA19BA884208
:1008500001D9012070BD0020C04370BD02780B7823
:10086000401C491C002A09D09A4207D102780B7813
:10087000401C491C002A01D09A42EFD0D01A70BD0A
:1008800001010101002203098B422CD3030A8B4290
:1008900011D300239C464EE003460B433CD4002278
:1008A00043088B4231D303098B421CD3030A8B428A
:1008B00001D394463FE0C3098B4201D3CB01C01A58
:1008C000524183098B4201D38B01C01A5241430923
:1008D0008B4201D34B01C01A524103098B4201D311
:1008E0000B01C01A5241C3088B4201D3CB00C01A7E
:1008F000524183088B4201D38B00C01A52414308F6
:100900008B4201D34B00C01A5241411A00D201461A
:100910005241104670475DE0CA0F00D049420310B3
:1009200000D34042534000229C4603098B422DD302
:10093000030A8B4212D3FC22890112BA030A8B42AA
:100940000CD3890192118B4208D3890192118B42F9
:1009500004D389013AD0921100E08909C3098B427E
:1009600001D3CB01C01A524183098B4201D38B01C1
:10097000C01A524143098B4201D34B01C01A524164
:1009800003098B4201D30B01C01A5241C3088B42A9
:1009900001D3CB00C01A524183088B4201D38B0094
:1009A000C01A5241D9D243088B4201D34B00C01A1E
:1009B0005241411A00D20146634652415B10104633
:1009C00001D34042002B00D54942704763465B107B
:1009D00000D3404201B50020C046C04602BD70476A
:1009E000704770470246C80FC00781434B0030B5BF
:1009F0004B405B009B0D20D01923DB06C918012357
:100A00001B05994220DB0324A40704251346AB40B1
:100A10000BD3002B04D1EB0613409B00E34204D41C
:100A200001246407002312195941FF231B05994231
:100A30000BD2C9000143500F09E0CB0204D501439A
:100A40000803024305D0054830BDFF21C90508430E
:100A500030BD084607210905884330BD0000C07F2E
:100A60001F22030C02D10F22000402D0030E03D078
:100A700004E00020014670470002083A030F01D14C
:100A80000001121F830F01D18000921E002801DB9C
:100A90004000521E120551184205C012411810465E
:100AA0007047C10FC90700D040420122920711438D
:100AB000D6E701218907D3E7F0B58B4C0F0925460E
:100AC00089B0BD437BD01D092646AE43FAD00E4601
:100AD0005E402740F60F3E43254071D0240121425D
:100AE000FBD0FF24AD19A4042D1B039501252D0572
:100AF000DB02DB0AC9022B43C90A29431E01090193
:100B0000040F130F050121431701880B8203914342
:100B10002D098C46A90B1E438A039543B30B9A03F8
:100B200096433F09BA0B9403A74302962E467E4391
:100B30000497B6464E19D7190C46019654430597AB
:100B40007E43371B7646BF1B3601B646BE0B3619B1
:100B500000967646BC043719009C01D3641C0094AF
:100B60006400002F01D001263443029E049F754388
:100B700066467E430496760034196E00341900945C
:100B8000029C019E1C196643751BAE460694654681
:100B90004519059C05956C43594375460891691A9A
:100BA0000191049E01465143A41B0491611A009CCB
:100BB0000791E10605D061090122114302E072E0CC
:100BC0006EE06109089D00272C0A2D066918049D16
:100BD0007C412A0A2D066918019D6241AC0DAD02C7
:100BE0006D185441079A910D920255196141029A6C
:100BF000644658435443069B059A5A43121A131BE2
:100C00009A0E9B015B187A41010B0005C3185141F4
:100C1000220A200644195A419A4200D2491C012056
:100C20004002814203D315230226F64302E0142337
:100C30000326F6432020C51AA9401746AF40DA40E4
:100C40000A4320460399D84009147318190551180E
:100C5000039A3843D2075140AC4009D00122944056
:100C600006D30022401C5141002C01D14008400015
:100C70001E4A934212D3012203989206904207DB48
:100C80000520400709181A480143C012414004E0FA
:100C9000032040070818C10FC907002009B0F0BDA4
:100CA0000020F107FAE705180C464C4111486D4247
:100CB000A04115D394181A465A410E4864429041F7
:100CC0000ED301204A004005824209D35A008242D5
:100CD00006D35940C90F084AC90700201143DDE770
:100CE00000200649DAE700000000FF07FE070000C9
:100CF000FFFFFF7F0000E0FF0000F07F0000F87FB3
:100D00000121C9050123411842001B06D3185B0EBF
:100D10000AD0C1100722D206891840075242D14298
:100D200001D5520089187047090208D50146002AEA
:100D300003D0C10FC9070020704710467047420218
:100D400002D0002002497047072109050143F4E75A
:100D50000000F87FF0B5FF252D04C609C209FF2762
:100D600004462E400137CB093E4348402A402B40E1
:100D70000746002A6BD0002B69D0AA4267D0AB424D
:100D800065D0002800DA32460125ED0529432C43C1
:100D900009022002090AD21A4B0C7F24E31A434CA1
:100DA000000A7C44E35C7D242404121914145B00C3
:100DB000A218884201D3521C00E0400049420C4670
:100DC0005C4324115C43DB016415E318040A5C43B3
:100DD000C502200D0C4644436419250A5D432303D4
:100DE000EC0C0D46654300030019EB184C42A3427E
:100DF00001D35B18401CD4052018002B07D05B00E2
:100E0000C91804D3401C002901D1400840003F21EB
:100E100089048A4209D3002A08DC1106090F04D08C
:100E2000032149074018C00FC007F0BD012241004F
:100E3000120689187F2252069142F6D205214907EF
:100E4000C84201D59010F0BDFF20C005F0BD002FB5
:100E500000DA32461648AA4207D2AB4205D219023E
:100E6000090E17D0F80FC007F0BDFF2563002D064F
:100E7000AB42F9D84900A942F6D8AB4201D1A94208
:100E8000F2D0A94201D1002101E061004908D0055A
:100E90000843F0BD1102090EFBD0FF200243D0052C
:100EA000F0BD0A460146104654E70000606A0000A3
:100EB0000000C07F10B501469E240002CA15A3079A
:100EC000002A02D01843002A04DBA21A002A0CDDF3
:100ED000D04010BD1206120E01D140004008A21AE7
:100EE00003D4D04040420028F3DDFF224800120620
:100EF000904201D9002010BDC817C043584010BD12
:100F00001F22030C02D10F2200041CD0030E01D1BA
:100F10000002083A030F01D10001121F830F01D113
:100F20008000921E002801DB4000521ED20551189D
:100F3000021251181922904004D3491C002801D1F3
:100F40004908490008467047C10FC90700D0404210
:100F5000012292071143D3E701218907D0E700005E
:100F6000004870479001002010B5FFF7F9FF0068B6
:100F700010BD10B50446FFF7F3FF046010BDFFB5C8
:100F800004460D4681B0243000902168880604D5BF
:100F90001022E0699143216000E00120A84201DDB8
:100FA000471B00E000270498A1697A191018081A55
:100FB000A0612078C00602D42046FFF709FA002677
:100FC00008E003986268A168805D9047206A401C31
:100FD000761C206204988642F3DB2078C0060AD58E
:100FE0002046FFF7F5F906E06268A16830209047D7
:100FF000206A401C206238467F1E0028F4DC07E08F
:1010000000986268A168405D9047206A401C206299
:1010100028466D1E0028F3DC2046FFF7EFF9207804
:10102000000602D5022005B0F0BD0120FBE700005C
:101030007047FFB50C461E468FB003CA0890099151
:101040004F007D0D00D16D1E002108460020C046D6
:101050000321099A89050840002A03DA82008018D2
:1010600040080840800D01280A9002DD0020C0439E
:101070000A90089807430DD0F048F14928184843D2
:101080000714189800281DD07542291E1DDD0A98E6
:1010900042421BE01898012802D00020302104E0D1
:1010A0000020F24305E02154401CB042FBDB3046F7
:1010B0000022189B002121540F998B600A60486020
:1010C00013B0F0BDBD1B6D1CDFE70A9A002900DAE2
:1010D00069420BA800F058FE0BAB07CB03AB07C36C
:1010E0000899099800F0BCFE6B4607C30146D54835
:1010F0000918002D00910BDDD24903980A9A494244
:101100004018002303A90390684601F019F908E08C
:1011100003990A9A0023081803A90390684601F06E
:10112000B9F86B4607C30004000C03D00020C0438D
:10113000410800E01046189A002A03D000220092CD
:1011400015461EE0751E05D400F01EFD30326255B6
:101150006D1EF9D501220843079602D000227F1C9C
:1011600004E02078302801D100227F1E002A069753
:1011700087D01EE0112D07DA00F006FD30326255EF
:101180006D1C02460A43F5D1084303D0009800289D
:1011900019D00EE00021681E05E0235C625C6354F8
:1011A0002254401E491C8142F7DBA81B401E0795B4
:1011B0000690079A18990020A0540F98079B069A4A
:1011C00081600CC07CE711260020189059E7D21DE1
:1011D000F0B50D460446D10893B0C90003C90C9080
:1011E0000D9103F0A1FE02460D98C00F01D02D20F5
:1011F00007E02068810701D52B2002E04007C00FDF
:101200004001032A0F9001D0072A05DB0346294637
:10121000204600F0FFFC0EE12078800601D5E7694A
:1012200000E006272846652D04D0662814D0672DD7
:1012300069D12DE00020112F009001DB112300E087
:101240007B1C0CAA03A910A8FFF7F3FE1199002636
:1012500010987D1C0E9142E001203B460CAAC0076D
:101260000B900120009003A910A8FFF7E2FE119D4A
:1012700012981099002600280E9501D1781C0D189F
:10128000781B02D446427D1C761EE81B00903AE093
:10129000012F00DA01270020112F009001DD11231A
:1012A00000E03B460CAA03A910A8FFF7C2FE119963
:1012B0003D46109800260E91217809070BD40E990F
:1012C000A94200DA0D4603A9012D04DD4A19203A8E
:1012D000D27F302A06D0B84201DA011D04DA01219A
:1012E00000910FE06D1EEFE7002802DC86192D1A31
:1012F00003E0411CA94200DD0D46801B401C00900C
:101300000120C0070B902078000705D40098A84260
:1013100002DB0020C043009069460020C8720B9891
:10132000012102AF0337C907884225D0022010905F
:101330002B2011900B9800280BDA40420B902D20A7
:10134000119006E00B9800F05DF930317F1E0B9094
:1013500039701099481E00291090F3DC0B98002872
:10136000F0D111987F1E38702088000501D54520E6
:1013700000E065207F1E387001A8C01BC01D0B90C7
:101380000F98002800D0012041190098C0170918B3
:101390000B980818A169081A401EA0612078C006A1
:1013A00002D42046FFF714F80F98002805D0626891
:1013B000A1689047206A401C20622078C00625D58D
:1013C0002046FFF705F821E0002E07DB0E98B0421B
:1013D00004DD03A86268805DA16802E06268A1681C
:1013E00030209047206A761C401C20620098401EE6
:1013F000002800900AD100F0C3FBC0686268016851
:10140000405CA1689047206A401C206228466D1EFF
:101410000028D9DC07E062683878A1687F1C904713
:10142000206A401C20620B99481E00290B90F2DCB8
:101430002046FEF7E3FF032042E6000001FCFFFF29
:10144000104D0000E1DFFFFF01694A1C02610878CE
:10145000704700B58FB002910021059105490193B5
:1014600079440391114604906846FFF737F80FB0AE
:1014700000BD0000E5FFFFFF0A681070521C0A6003
:1014800070470CC908399A4202D2531C0B60107085
:10149000704710B54369002B02D0C046C04601E03A
:1014A000FEF7BDFF012010BD1278014624310A70FD
:1014B00000224A700122ECE711680022D243E8E7DB
:1014C000084B70B50D467B44FFF7C3FF0446284622
:1014D00000F086FF002802D00020C04370BD2046E7
:1014E00070BD0000474200000FB4002300B589B072
:1014F0000CA900910B99CB60224B7B44224A7A4481
:101500000792042206930192204A0292204A7A44CA
:101510006B4608920246002006F01CF909B008BC90
:1015200004B0184770B5064615460C46324686B0DC
:101530000020C04301900020049004A80091029173
:101540006946FFF7D1FF024604982118002D05D007
:10155000002801D0084600E02046286004980028B2
:101560000DD0002A02DD0098884208D03246081BC0
:101570006946019004A800940294FFF7B5FF06B0F5
:1015800070BD00009F070000BB070000FFFFFF7F4A
:10159000F1060000F7B50F460026009C2578641C74
:1015A000002D05D000F0E4FA0068405DC007F5D1D9
:1015B0002B2D02D02D2D18D0641E3946029A2046BC
:1015C00000F08EFB002F04D03968A14201D10099B0
:1015D00039607105022400290BDA4042002803DD3E
:1015E000FFF7BEFC0460A007FEBD01208002064399
:1015F000E3E70028F8DAFFF7B3FC04600048FEBD1B
:10160000FFFFFF7F01468008081A02091018020A2E
:101610001018020C1018C008820012185200891A03
:1016200001E0401C0A390A29FBD27047F0B50C468C
:10163000871A9C410D46861A9D4103D2C01BA141C9
:10164000D21963410D0D1F0DC94EEC1BAE435CD08A
:101650007F057F0D0026002F51D02D05AC46A943F4
:10166000DD020123ED0A1B051D4320231B1B24D48F
:101670001746E740381871412F46E740CC199D4086
:101680002818314661410C0D27D161449A4013D589
:101690000023401C594152000ED140084000012255
:1016A0004B005205D34207D305204007C14201D564
:1016B000B04900E0B0493046F0BD6B00002A00D0D0
:1016C00001229A181F23203C1B1B01D5002302E096
:1016D000E540281871410C0DD7D0012424050919C3
:1016E000C407CD0740084908E40F28436144002C93
:1016F000D5D00024401C61419A40D0D1CDE76A0585
:10170000520DD9D1C90FC907D5E79C4D4E0000280D
:1017100001D0012400E0002434195F00002A01D028
:10172000012600E00026BE19954FAC420CD8AE420F
:101730000AD8B44206D001256D05EC42BCD0104653
:101740001946F0BD9942FCD000203946F0BDF0B5F5
:101750001FB40C460F46811A9F412546861A9D41AB
:1017600006D20125ED076F40401ABC4152187B415B
:10177000210D1E0D8D1BAC467D4D8D437ED0750514
:101780006D0D7CD00D05AE46AC431B031B0B794D94
:1017900052429D41202366469B1B14D31746F740B7
:1017A000381800260090744160462F460741E4191E
:1017B00000989D402818664116D4714671189A40C9
:1017C00025D5012320E093182A466A415200002BB8
:1017D00000D0521C1E23203E9B1B002B61DD354197
:1017E000EE1728186641E8D5001876415B1C9A4030
:1017F00000D3401C4B05F3181524E34010D3002BF5
:1018000052D071467118D30FC01802D3491C05B0CD
:10181000F0BD0123DB079A42F9D140084000F6E70A
:1018200001225205B21801D1002853D00123CC0A5D
:10183000DB029943891E002A08D1020C03D0020C56
:101840000004103902E00246002020390023550B25
:1018500005D112020823550B01D152010D23550C5D
:1018600001D112011B1DD50C01D192009B1C150D3D
:1018700001D152005B1C2025EE1A01E02CE022E091
:101880000546F54015439840CA1AE1076918130543
:10189000C918002ABBDA032040070818C10FC9077E
:1018A0000FE071466118B2E7F10740080843711074
:1018B00071444A000CD001235B059A42A7D2C90F9C
:1018C000C9070020A3E74905490D26D1002001E002
:1018D0000028F4D100219AE7284D6600002801D0A5
:1018E000012100E0002171185F00002A01D00126CB
:1018F00000E00026BE19224FA94210D8AE420ED8F1
:10190000B14208D001256D05E94206D01946A8026A
:10191000414010467BE79C4201D0214677E70020FA
:10192000394674E710B50C465C4005D50124E40740
:101930006340FFF70CFF10BDFFF778FE10BD30B419
:101940000C465C4004D50124E407634030BC6DE6DE
:1019500030BCFCE670B50124E40761400D465D40F3
:1019600002D4FFF763FE70BD6340FFF7F0FE70BD69
:10197000FF0700000000F0FF0000F07F0000E0FF24
:101980000000F87FF8B5224C4E00069DA6420AD80A
:10199000A64201D1002806D15E00A64203D8A64285
:1019A0000AD1002A08D00D24240425422CD029462F
:1019B000002000F019FDF8BD0C461C430CD49942E0
:1019C00002D0EFF30080F8BD904202D0EFF3008028
:1019D000F8BDEFF30080F8BD09242407E5008B4231
:1019E00006D0EFF30080A043591A06D2284304E042
:1019F000101A05D3EFF30080A04380F30088F8BDF0
:101A0000EFF30080A043F1E7009500F005FDF8BD7D
:101A10000000E0FFF0B501230A0DDB0200249A4329
:101A2000E4430025002A28D05B1E9A4223D05B1095
:101A3000D61AA64228DB721C48D0342E18D20222B5
:101A4000142E2BD822D00B460D36B34001D10028DE
:101A50000FD00024701E0B468340DB0FF241284656
:101A6000551EA943002B03D08918002C00D09143A8
:101A7000F0BD0124EEE79A4239D04A000243F7D084
:101A8000C90FC9072846F0BD002223E00122C30F79
:101A9000400001D00024E2E70124E0E70346133EC2
:101AA000B34011D00023741E0746A740FC0FF2413B
:101AB0001746521E9043002CE5D0002B00D0521C3C
:101AC000C01969419043F0BD0123ECE701220B03EB
:101AD00018430AD00023C90FC9072846002AF2D0AC
:101AE000002BF0D1054A1143F0BD0123F3E70A03AF
:101AF00001D10028F8D000200149F0BD0000F03FDE
:101B00000000F87F10B5FF231B0644009C421DD83F
:101B10004C009C421AD80346124A0B4307D4401A81
:101B200002D3EFF3008010BDEFF3008010BD081A60
:101B300006D2EFF3008001219043C907084302E079
:101B4000EFF30080904380F3008810BD0D231B0449
:101B50001A4204D01146002000F046FC10BD00F0EF
:101B600065FC10BD00000090004870479001002007
:101B700010B500F005F8001D10BD00BFF1570000C2
:101B800000487047B00100200B4670B50246890737
:101B90008008084319469D08141AA9412509080719
:101BA000054308092C194841250A01060D43010A7D
:101BB0002C194141200C0D0428430D0C00194D41F6
:101BC000002140194D41C00869070843E908840F06
:101BD0008D002543840024184D4124196D41121BAA
:101BE000AB4107E00925ED432C1152196341002454
:101BF000401C61411C460A250026551BB441F1D208
:101C000070BD10B50446FFF7B3FF0068005DC00764
:101C1000C00F10BDF8B51F46044601230068DB0263
:101C2000032601461840072A05DB002801D017A526
:101C300006E017A504E0002801D016A500E016A5CF
:101C4000102081432160A069C01E002FA06101D037
:101C5000401EA0612046FEF7BBFB002F09D038468E
:101C60006268A1689047206A401C2062C01C206204
:101C700006E0206AFAE762682878A1686D1C904740
:101C8000761EF8D22046FEF7B9FBF8BD4E414E0055
:101C90006E616E00494E4600696E66004268002A19
:101CA00008D001680B78491C002B03D0521E06C0D7
:101CB000184670470121C160881E70474268002A9B
:101CC0000BD0C3680168002B07D183688B4204D016
:101CD000491E521C06C0002070470020C0437047B8
:101CE000F7B5154682B00027029C2078641C019746
:101CF000302802D0002D15D015E020780127641C73
:101D0000782804D0582802D0002D09D00BE0002DEF
:101D100001D0102D07D1207800271025641C02E087
:101D2000082500E00A250026009610E0009901270A
:101D30006943081829467143020C80B200908E183E
:101D40003804864201D3012001902078641C294682
:101D500000F093FB0028E9DA0398002805D0002F53
:101D600001D0641E00E0029C04600198002806D0A7
:101D7000FFF7F6F802210160C81E05B0F0BD00991A
:101D800030040843F9E70000F7B516468AB0334837
:101D900078446C4603467C33C06F5A689B680DC418
:101DA0002E487844763003AC0DC80DC43720C001EE
:101DB000081837211B30FEF76FFD05460C46803DA5
:101DC0001B3C02D56442012000E00020002709905E
:101DD00010E0E0070CD00C202049784379443246CB
:101DE0004C3941186846012300F054FA6B4607C38A
:101DF00064107F1C002CECD1184F7F442E3F16E05E
:101E0000E80712D02001C0190EC806910893079266
:101E10000068F04201D1981908903246012306A9C2
:101E200003A800F037FA03AB07C36D10641C002D44
:101E3000E6D10998002806D032466946012303A856
:101E400000F07EFA05E001233246694603A800F05F
:101E500021FA0A9B07C30DB0F0BD0000B45A000080
:101E6000034640000A4610B5400D0BD00121C907BA
:101E70000F24A40200191C0364082143540D2143BC
:101E8000D20207E000210120F2E7D40F49002143EC
:101E90005200401E0029F8DADB0FDB07184310BDA3
:101EA000FFB50D46144685B04868516803F016F832
:101EB00000910190A868A16803F010F802910390C6
:101EC000A868616803F00AF8029A12188242029226
:101ED00001D2012000E00020019A0B18D21800283E
:101EE000019202D08A4202D903E08A4201D2012043
:101EF00000E000200099081800906868A16802F0CE
:101F0000EDFF029A12188242029201D2012000E0F3
:101F10000020019A0B18D2180028019202D08A42A0
:101F200002D903E08A4201D2012000E0002000999A
:101F300008180090286821684000490040084908B6
:101F40004018FA49471814E001994000C90F0843A6
:101F50000090019802994000C90F0843019002982F
:101F600003994000C90F08430290039840007F1E68
:101F7000039000980028E7DA0898002801D0EC4E7A
:101F800000E00026B74201DA012000E0002000282E
:101F900004902AD0F71BF806C00E15D0029B202112
:101FA000091A039A8B401A430392029A019BC2407A
:101FB0008B401A430292019A009BC2408B400099C9
:101FC0001A430192C14000917B110DD06F4603204E
:101FD000C11A03D500218200B95003E08A008100B4
:101FE000BA587A50401EF3D5374603980299002814
:101FF00000D00120014308980291002808460CD027
:10200000002800D001200199019A490508430121C7
:10201000D20AC902D202019200E001210E9B0122E4
:10202000D207012B02D0002B03D013E0002807D1E8
:1020300020E0904204D890420CD1019B0B4209D081
:10204000019B5918019105D10099491C009101D1BA
:102050007F1C009200280DD0102108460020C046A9
:102060000498002806D00F98002803D008210846BD
:102070000020C04628682168019B009A4840C10F93
:102080000598C90739430EC009B0F0BDFFB587B048
:10209000099A089808995368926840688968964632
:1020A0000022039317469446089A12685300099A2F
:1020B0005B081268520052089A1A9E4BD4180A9A6A
:1020C000002A01D0352200E040220692002201239E
:1020D00015460492DB07059324E0002D05D17546D3
:1020E0000346039E4D1BB34109D375466646039BC9
:1020F000491B049D9841059B7519AC465F41634699
:102100003B4308D0059B049EDD0776082E435B0801
:102110000496059301E0521E641EC50FED07491891
:102120004041521C069B9A42D7DB002D04D17546D4
:10213000039A6B1A824101D203200CE0039A0B46EA
:102140006B404240134303D0014303D0012002E01F
:10215000022000E0002061460191002100970291D9
:102160000A99002905D0614640020143704B019154
:1021700002E08007002302909C4201DA012000E087
:10218000002007003AD01A1BD006C00E15D0029DC1
:102190002021019C091AC5408C402543029C8C409B
:1021A00000D001242543019C0295009DC4408D4030
:1021B00000992C430194C140009154111DD06D46EB
:1021C0000221002202290CD10320001B07E0002875
:1021D00004DB8600AE59002E00D00122401C0328EB
:1021E000F5DB081B02D588002A5004E0800028583F
:1021F00010438A00A850491EE3D51C460A980028BF
:1022000002980CD0002800D001200199019A4905BC
:1022100008430121D20AC902D202019200E0012141
:10222000109B0122D207012B02D0002B03D013E018
:10223000002807D11FE0904204D890420CD1019BA6
:102240000B4209D0019B5918019105D10099491CF5
:10225000009101D1641C009200280CD01021084686
:102260000020C046002F06D01198002803D0082176
:1022700008460020C04608980999019A009B00680A
:1022800009684840C10F0798C907214382600AC006
:102290000BB0F0BD00B585B0019300920A4601462F
:1022A000002302A8FFF7FCFD02A807C805B000BD87
:1022B000FFB50A461F4685B0079901930123009197
:1022C000014602A8FFF7ECFD02990398049ECA0F8D
:1022D0004900D20700920F22490892028C1A00216D
:1022E000002800DB0C46450013486D08844214D3D7
:1022F000079A002A04DA441E0026104DF64302E035
:1023000004460D460E46102108460020C046002F08
:1023100003D0042108460020C0462005E90A0843EE
:10232000009908436905F20A1143ADE602C0FFFFB8
:10233000013C0000FF3F0000FF070000FFFFFF7FA0
:1023400000B585B0019300920A460146002302A819
:10235000FFF79CFE02A807C8A8E7FFB50A461F467C
:1023600085B00799019301230091014602A8FFF768
:102370008DFE02990398049ECA0F4900D20700926D
:102380000F22490892028C1A0021002800DB0C461B
:10239000450011486D08844214D3079A002A04DAD4
:1023A000441E00260D4DF64302E004460D460E463F
:1023B000102108460020C046002F03D00421084603
:1023C0000020C0462005E90A084300990843690532
:1023D000F20A114358E60000FF070000FFFFFF7FED
:1023E000C068802108407047C80212D54803400FDA
:1023F000002804D0C803C043012188407047EFF390
:1024000000800001000903210907084380F30088C8
:10241000704700207047000010B500200249029A62
:1024200000F0D2FA10BD00000000F87F10B502489D
:1024300000F0CAFA10BD00000000C07F7546FFF72B
:1024400093FBAE46050069465346C008C00085466A
:1024500018B020B5FDF7C4FE60BC00274908B64699
:102460000026C0C5C0C5C0C5C0C5C0C5C0C5C0C5A3
:10247000C0C5403D49008D4670473A2800D23038EB
:10248000202302469A43412A01D310463738884216
:1024900001D30020C0437047FFB58BB00878FF28F8
:1024A00006D0491C2D2805D000230020009009E00B
:1024B00000200EE00123F8E7009A0A246243801806
:1024C000491C00900878FF28F6D1002B02D0009814
:1024D00040420090002503952C460D9800782D2849
:1024E00001D02B2815D10D99491C2D280D9102D012
:1024F000002003900DE00120FBE7401C214600274F
:102500000A223B460D90284600F08DFA35183C46CD
:102510004C410D980678FF2EEFD10021084600208F
:10252000C0460399002902D08100401840080002EB
:10253000860F012E01DD0026F6430E9900984718FC
:10254000284620430BD0FF20F530C7421ADA039803
:10255000C1070B98002E41600ADD012009E00398B5
:10256000C1070B9841600B99002008600FB0F0BDC7
:1025700000200B990860FEF7F3FC0221016018218E
:1025800008461AE0FF20F530874219DD002E02DAF6
:10259000FC48784401E0FC48784406C80B9806C023
:1025A0000B9803994068C90708430B994860FEF7E8
:1025B000D7FC02210160142108460020C046D5E75F
:1025C000002108460020C04639000A9001D5724219
:1025D00000E03246002900DA794207A8FFF7D4FB71
:1025E00007AB07CB04AB07C3E848009000200146C7
:1025F000214304D12C460546E44920390091210CA1
:102600000904014306D1290C24040C4300992D042C
:1026100010390091210E0906014306D1290E24022A
:102620000C4300992D0208390091210F090701433D
:1026300006D1290F24010C4300992D01091F009197
:10264000A10F8907014306D1A90FA4000C430099EB
:10265000AD00891E0091E10FC907084304D100981D
:102660006D196441401E0090002F0295019406DD13
:1026700032466846012304A9FFF71AFE05E001234C
:102680003246684604A9FFF768FE044603980D46E3
:10269000002802D00120C007444000210846002045
:1026A000C0460A99BA4E48400007800F07D1600023
:1026B0004008284303D06000400DB04214D1FEF71B
:1026C0004FFC022101606000400DB0420CD1B148C6
:1026D000784406C80B9806C00B98E10FC9074068FC
:1026E00008430B99486041E70B9844600B980560DC
:1026F0003CE7FFB51F4695B0002000250C909E6872
:102700005C68ED431390FFF73BFAC0680168405CDA
:102710001490B96916986D1C88470A90396A8847E1
:102720000028F6D10A98401C0AD00D20C00184432D
:10273000002E12DD0A982B2809D02D280DD103E098
:102740000020C04319B0F0BD012080020443B969E4
:1027500016986D1C8847761E0A90600504A901D55D
:102760002D2000E02B206A46491C107410A8002E72
:102770000D910B903BDD0A98692805D0492803D0BC
:102780006E2801D04E281DD13B46039002200296B0
:10279000179A1699C0430095019404F0EBFFC11CF1
:1027A000D0D10FE0B96916986D1C88470A900120B6
:1027B000761E40020443179805601398401C002EB3
:1027C000139014DD0A983028ECD0782801D05828CE
:1027D0000DD1139801280AD13B460296179A1699F3
:1027E000001F0095019404F0BDFFC11CAAD11499EB
:1027F0000A98884246D18020044308E00C98179933
:10280000401E0C90012040020443681C0860B96916
:102810006D1C1698761E884730280A90EED031E05D
:102820001499884205D1200603D480200443761EE3
:102830001EE00A9802F03AFC002826D0012008A9E0
:10284000400204430D980331761E88420BD20A9849
:102850000D99303808700D98401C0D90200607D552
:102860000C98401E03E0200602D40C98401C0C90EB
:10287000A00502D51799681C0860B96916986D1CE7
:1028800088470A90002ECBDC59E0002E57DD0A98CD
:10289000652801D0452852D1A00550D50320B9693B
:1028A000000284436D1C1698761E8847002E0A90FD
:1028B0000CDD2B2804D02D2808D1FF200130044343
:1028C000B96916986D1C8847761E0A90E00501D5F7
:1028D0002D2100E02B210B9801700B98401C0B90D0
:1028E000009025E0012012A9400204430B98013119
:1028F000761E88420ED20A980B9930380006000ED8
:10290000087003D100990B9888420AD90B98401C93
:102910000B9006E0E00501D51F4801E01E4840424B
:102920000C90B96916986D1C88470A901798056035
:10293000002E04DD0A9802F0B9FB0028D2D1F96913
:10294000169888470D99FF2004AA08700B99087003
:1029500000200E900F900C9B10A90EA8FFF79CFD75
:10296000A00502D40120C043ECE62420044215D087
:10297000E0071FD138680F9A0E99031D3B6000686D
:1029800006C017E01E570000105700003E40000030
:10299000FF070000D8550000F1D8FFFF0EA96846D8
:1029A00002F00EFBE00705D13868009A011D39607E
:1029B000006802602846C5E610B50446C046C04619
:1029C0002046FDF7E0FB10BD10B50C461107090FBE
:1029D000092904D00A290AD008290CD104E011469B
:1029E0000820FFF701FD06E0510606D501E051067B
:1029F00001D50120C007214610BDD10607D5010130
:102A00000909CC084907000E0006044309E0410FFC
:102A100020024907000A0143200E00061D22D14171
:102A200001430846E7E74343514330B55C18010CC6
:102A3000130C0D4692B25D4380B251432C190546EA
:102A400055430A0C09044D1962415843010C000416
:102A50004019514130BD000001491820ABBEFEE7CE
:102A600026000200FFB51F4689B013981299400551
:102A7000C00FC00705900020079005460446461E7B
:102A8000049002903C20491C12910690B9690A9862
:102A9000884703901498401E14901498002841DD34
:102AA00003982E2816D01021FFF7E7FC002834DB0E
:102AB00001210491079901431AD0069900290CDBE2
:102AC000069AC11700F007FA054306980C43001F49
:102AD000069006E0012002900EE0002801D00120BF
:102AE0000543012007900298002805D1361D03E018
:102AF0000298002800D0361F1298401C1290B96925
:102B00000A98884703901498401E1490049800284F
:102B1000C3D00B9912980860BFE70398702808D0BB
:102B2000502806D0F9690A9888470498002815D0DB
:102B300051E00020039001200290049800280AD060
:102B40001298401C1290B9690A9888471499491E36
:102B50000029149106DCF9690A9888470120C043CE
:102B60000DB0F0BD2B2804D02D280DD10020C0437E
:102B700002901298401C1290B9690A9888471499DB
:102B8000491E00291491E6DD411CE4D00A21FFF71B
:102B900074FC0028DFDB03990A22514308180390D4
:102BA0001298401C1290B9690A9888470A21FFF7C9
:102BB00064FC14990B9A491E14911299116014998E
:102BC000002901DD0028E6DAF9690A9888470299A8
:102BD00003984843861913982421084004902846F6
:102BE000204304D0A10F8907090002D006E0059810
:102BF0009BE0A90FA4000C43AD00B61EE10FC9076E
:102C0000080002D16D196441761E0498002803D093
:102C10000B2002905D4803E0282002907D20C043F5
:102C20008642039007DA811B029808184128029017
:102C300001DD41200290029A01200021521E00F085
:102C40004AF9024628400B462140084301D00120A2
:102C500000E0002007900020521EC04343412A405C
:102C600023401A4301D0012000E00020079906907C
:102C7000014352D0002108460020C0460321059A96
:102C800089050840002A05D082008018C20F10185C
:102C9000401008408015012802DD0020C04301E0FB
:102CA000012815D0401C38D00798002835D0069848
:102CB00000280DD1029A0120002100F00CF92840D3
:102CC0002140084301D0012000E00020002824D04A
:102CD000029A0120002100F0FEF8034640198C46BC
:102CE00061412A1A8C410FD30298402807DD0498CD
:102CF000039E002801D0343E02E0173E00E0761C1F
:102D000001240025E40708E05B1E62460024E4433A
:102D10006241DD43D44305400C4003980121081A69
:102D2000B04206DA1A490598084301900020009045
:102D30000EE060006205010BE80A1043059A00905E
:102D400068460A4313490A433146019202F0A4F946
:102D5000049800280AD01398C00714D13868019A43
:102D60000099031D3B60006806C00CE002A869469C
:102D700002F026F91398C00705D13868029A011DA0
:102D80003960006802601298EAE6000002FCFFFF6A
:102D90000000F07F0000F03FFFB51D4687B011989E
:102DA000484A109C129E40051399C00F761EC0071A
:102DB0000243019200220092FF22D20510432022FA
:102DC00091434929059003D017464E2928D04FE05A
:102DD0003DA002AA0BC801270BC2A9690898641C70
:102DE0008847761E014607D402A8C05D002803D09C
:102DF0002022914381420AD0E96908988847032F2D
:102E000036D0082F34D00120C0430BB0F0BD7F1C5A
:102E1000032F01D0082FE0D10999601C0860DCE77E
:102E2000A9690898641C8847761E2DD4B8434128A8
:102E30002AD1A9690898641C8847761E24D4B8430F
:102E40004E2821D1A9690898641C8847019901225C
:102E5000D204114301910599D200114305910999BA
:102E6000761E0C6001D4282806D0E96908988847A6
:102E70001198C00712D023E0A9690898641C8847FC
:102E8000761E01D4002803DAE96908988847BAE772
:102E90002928F1D10998641C0460E9E711982421DC
:102EA000084207D02868019A0099031D2B6000682A
:102EB00006C005E028680599021D2A6000680160C7
:102EC0002046A2E70000F07F494E46494E4954593A
:102ED00000000000704710B5202A04DB0146203AAC
:102EE0009140002010BD914020239C1A0346E340EE
:102EF0001943904010BD000070B505464800440DD0
:102F0000124B0020002C0AD0634008D09A4206DA07
:102F10006642B24203DD12054019514170BD002CDA
:102F200008D0002B09D0C90FC907002AF6DB084AD0
:102F3000114370BDC90FC90770BD28460A0310436D
:102F400002D00020034970BD284670BDFF07000075
:102F50000000F07F0000F87F72B6FEE730B5014652
:102F600020314B780022022B04D0042383630A70A3
:102F7000012030BD03681C680E25AC431C6003684B
:102F80001C68640864001C600123056C1C46C06B4F
:102F9000AC4044604B700A70002030BD70B5002416
:102FA000014620314A78022A03D00421816301249A
:102FB00016E0026813680E25AB43136002681368BD
:102FC0005B085B0013600122056C1346AB40C56BC8
:102FD0006B604A7000220A70416B002900D088475C
:102FE000204670BD70B5044600F0ECF80546601C44
:102FF00002D004480078241800F0E4F8401BA042F6
:10300000FAD370BD30000020F8B500230324012559
:10301000BAE02E469E40B44632407CD00E79B607C8
:10302000B60F012E01D0022E17D186682746B6466C
:103030005E00B74000967646BE43B646CF68009E17
:10304000B74076463743876046686746BE430F7988
:10305000FF06FF0F9F40374347600E79F643B607E0
:103060000ED0C6682746B4465E00B646B7406646F0
:10307000BE43B4468F687646B74066463743C7605E
:103080000E79B607B60F022E14D1DE08B600361838
:103090000096366A5F07B446FE0E0F27B646B74065
:1030A0006646BE43B4460F697646B7406646374328
:1030B000009E376206682746B4465E00B646B740B3
:1030C0006646BE430F79B446BF07BF0F7646B7408A
:1030D0006646374307604E68B603B60F53D02D4F90
:1030E000BE692E43BE61BE699F08F607F60F2A4EE1
:1030F000BF00BE190096B6680F27B4469E07360F6C
:10310000B646B7406646BE430927FF06B446B842F6
:1031100002D1002710E036E0204FB84201D101274C
:103120000AE01F4FB84201D1022705E01D4FB84207
:1031300001D1032700E005277646B74066463743AE
:10314000009EB760184EB6684F689643FF0200D5E0
:103150001643154FBE60FE684F689643BF0200D508
:103160001643114FFE607E684F689643BF0300D53B
:1031700016430D4F7E603E684F689643FF0300D5AF
:103180001643094A16605B1C0A681646DE4000D0EA
:103190003FE7F8BD00100240000001400004004875
:1031A00000080048000C0048000401400069084085
:1031B00000D001207047002A01D0816170478162F0
:1031C0007047000001488068704700003000002010
:1031D00070B5024640325378202B1CD11378012B56
:1031E00019D00123137024245470046825689D436A
:1031F0002560046825681E03B543256004682568BA
:103200000D4325600068016819430160202050705B
:103210000020107070BD022070BD70B502464032B3
:103220005378202B1BD11378012B18D00124147054
:103230002423537003681D68A5431D6005682B682F
:103240000F263602B343090219432960006801685A
:1032500021430160202050700020107070BD0220BA
:1032600070BD000070B5040006D025464035687872
:103270000026002802D005E0012070BD2E702046F7
:1032800000F016FA24206870206801684908490097
:1032900001600F2160680906884321680861216880
:1032A0008A680120C00382438A60E1680129A1681D
:1032B0002FD0212292021143226891600121E268FD
:1032C000C902022A2268536825D08B4353602168C3
:1032D0004A68124B1A434A602168CA688243CA602E
:1032E000616920690843A169090208432168C8602F
:1032F000216AE069084321680860206801680122AA
:10330000114301606664202068702663AE7000205F
:1033100070BD0143D0E70B43D8E7000000800002F6
:10332000FFB50446002083B02546403501906A78F9
:10333000202A68D122689269D243120463D52A7880
:10334000012A60D001222A7024226A7060648F05ED
:10335000BF0DE06801280AD02C48012138188902E5
:10336000884321684860FFF72DFF06460CE0284897
:10337000F3E70698401C07D0FFF724FF811B06984F
:10338000814219D8002817D0216888698969800688
:10339000C00FC906C90F0843EBD020688069069B9F
:1033A000C043C006009617D500222021204601F018
:1033B00009F9002817D107E020206870616C0143EB
:1033C0006164002028700EE021682020C8616870C8
:1033D0000020287007B0F0BD00222021204601F017
:1033E000F1F8002801D00120F4E721681020C8611D
:1033F00021682020C8610198401C01460190059871
:103400008142A6D3D8E70220E4E7000000280002AA
:1034100000200002FFB5054604464035687883B0B9
:10342000202873D10C98002814D00D98002811D0B2
:10343000287801286AD001202870FFF7C3FE0746CC
:10344000012200901923D103204601F0BBF8002887
:1034500072D103E00120400260646DE022206870B8
:103460004020A870002666640C9860620D98608504
:1034700066630E980090019704A90EC9204601F0DA
:103480002BF8002801D02E7056E0618D3348FF29BB
:1034900004D9012222851306009006E0618D218562
:1034A0000090208D0123C2B25B062046049901F0F2
:1034B00073F800970022042120460E9B01F082F849
:1034C000002839D12068406A616A0870606A401C2F
:1034D0006062208D401E81B22185608D401E608516
:1034E000608D00281ED000291CD100970022802169
:1034F00020460E9B01F066F800281DD1608DFF2844
:1035000005D9012222851306009607E024E0608D8C
:1035100020850096208D0123C2B25B0620460499C7
:1035200001F03AF8608D0028C3D13A4620460E9942
:1035300001F081F8002802D0012007B0F0BD216819
:103540002020C86121684A68054B1A404A606870AB
:10355000AE702E700020F0E70220EEE7002400801D
:1035600000E800FEFFB5054604464035687883B0A4
:10357000202872D10C98002814D00D98002811D062
:103580002878012869D001202870FFF71BFE074624
:10359000012200901923D103204601F013F80028DE
:1035A00071D103E00120400260646CE0212068706A
:1035B0004020A870002666640C9860620D986085B3
:1035C00066630E980090019704A90EC9204600F08A
:1035D000B3FF002801D02E7055E0608DFF2805D97B
:1035E000FF22228501231B06009606E0608D2085C0
:1035F0000096208D0123C2B25B062046049900F09C
:10360000CBFF3A4620460E9901F040F800283AD107
:10361000606A216800788862606A401C6062608D20
:10362000401E6085208D401E80B22085618D00295E
:103630001FD000281DD100970022802120460E9B1C
:1036400000F0C0FF00281ED1608DFF2806D9FF22A0
:10365000228501231B06009607E024E0608D20856B
:103660000096208D0123C2B25B062046049900F02B
:1036700093FF608D0028C4D13A4620460E9900F091
:10368000DAFF002802D0012007B0F0BD2068202119
:10369000C16120684268054B1A4042606970AE7093
:1036A0002E700020F0E70220EEE7000000E800FEA8
:1036B00010B586B0044614216846FDF767F8134933
:1036C0002068884220D1124C6169012040040143E6
:1036D0006161616901400320059140020090122060
:1036E0000190002002900320039004200490092000
:1036F0006946C006FFF788FCE169012040050143E7
:10370000E161E1690140059106B010BD005400403F
:103710000010024070B504000FD021681548086001
:1037200021681548086003CC41602068083C216886
:103730008860FFF747FD05460CE0012070BDFFF7EC
:1037400041FD401B272805D92068C068400701D0EB
:10375000032070BD2068C0684007F0D1206802696E
:10376000E1688A4201D0016101E004490160002062
:1037700070BD0000CCCC000055550000AAAA000086
:10378000006802490160002070470000AAAA0000FA
:1037900002488168027889188160704730000020F3
:1037A00010B506480168102211430160032000F0A3
:1037B00007F800F027F8002010BD000000200240AC
:1037C00070B504460D4D7D202978C000FDF75AF8EC
:1037D00001460B480068FDF755F800F083FB002810
:1037E00009D1042C07D200222146401E00F02AF8FD
:1037F00000206C6070BD012070BD00003000002012
:103800003C00002008B5084881690122114381610C
:10381000816911400091C26901040A43C261C06913
:103820000840009008BD000000100240002805DBA1
:10383000C106C90E01208840014908607047000098
:1038400000E100E010B501F085FB10BDBFF34F8F24
:1038500004490348C860BFF34F8F00BFFDE7000075
:103860000400FA0500ED00E0F8B505460068354CA7
:10387000C00352D5E0690026C00007D4E1692004E6
:103880000143E161E1690140012600912E48016890
:10389000C90510D40168821511430160FFF792FC3D
:1038A000074604E0FFF78EFCC01B642824D8264896
:1038B0000068C005F6D5206A03273F02384020D0B3
:1038C0006968394081421CD0206A226AB8430121CC
:1038D00009040A432262226A8A4322622062C007E4
:1038E0000FD0FFF76FFC009008E0FFF76BFC00992A
:1038F000411A1648814201D90320F8BD206A800789
:10390000F3D5206A6968B84308432062002E04D0CA
:10391000E169012000078143E1612878C00705D0F3
:10392000206BA968800880000843206328788006FF
:1039300005D5206B10218843E968084320630020E7
:10394000F8BD000000100240007000408813000025
:10395000F8B50F46060059D03A4D2868C007C00F89
:10396000B84209D2286840084000384328602868D7
:10397000C007C00FB84249D13068334C81070CD51D
:10398000400704D560680721090208436060606849
:10399000F0218843B168084360603078C00726D0C2
:1039A000706801280ED0216802280ED089070029EE
:1039B0002CDA61688908890001436160FFF702FC25
:1039C00000900DE021688903F1E78901EFE7FFF737
:1039D000F9FB0099411A1D48814201D90320F8BD25
:1039E00060680C210840716889008842EFD128681E
:1039F000C007C00FB8420BD92868400840003843C0
:103A000028602868C007C00FB84201D00120F8BD67
:103A10003078400706D56068072109028843F168BD
:103A20000843606000F028F86168094A0906090F38
:103A3000515CC840074908600320FFF7C1FE002021
:103A4000F8BD000000200240001002408813000072
:103A5000A47700083C000020044805490068496834
:103A6000044A4905490F515CC84070473C0000209A
:103A700000100240B477000810B5114A51680C20BC
:103A80000B4603400F48042B02D0082B01D00E48F0
:103A900010BD8B020D4C1B0FE45CD26A0B4B12075E
:103AA000120F10339A5CC90305D500231946FCF7A1
:103AB000E1FB214601E02046054901F00FFA10BD67
:103AC0000010024000366E0100127A008477000870
:103AD00000093D00FEB5040070D02078DC4DC00721
:103AE0004AD068680007800F012807D0686800077F
:103AF000800F022809D16868C00306D528688003B2
:103B00003AD560680028E7D036E06168012914D012
:103B100001208004002901D0052914D02A68012140
:103B200009048A432A602968814329606068002863
:103B300016D0FFF747FB06460EE02868012109046E
:103B400008432860F2E7296801432960F5E7FFF799
:103B500039FB801B64286ED828688003F7D50BE0FA
:103B6000FFF730FB064604E0FFF72CFB801B6428C0
:103B7000F1D828688003F7D4207801268007002830
:103B80003CDA68680007800F07D068680007800F7C
:103B9000022809D16868C00306D42868800716D5B2
:103BA000E06801280AD112E0E0680028286816D0F1
:103BB00030432860FFF706FB074605E043E1FFF7C7
:103BC00001FBC01B0228C6D828688007F7D52868E3
:103BD000F82188432169C900084328600EE04008A5
:103BE00040002860FFF7EEFA074604E0FFF7EAFA24
:103BF000C01B0228AFD828688007F7D420780007B8
:103C000022D5E0690028686A0ED030436862FFF769
:103C1000D9FA074604E0FFF7D5FAC01B02289AD864
:103C2000686A8007F7D50FE0400840006862FFF738
:103C3000C9FA074605E09DE0FFF7C4FAC01B022859
:103C400089D8686A8007F7D42078042740070028BD
:103C500060DA00200190E869C00008D4E969B8067C
:103C60000143E961E969014001200091019079482F
:103C70000168C90511D40168821511430160FFF77D
:103C8000A1FA009005E0FFF79DFA0099401A642818
:103C900070D870480068C005F5D5A06801280AD022
:103CA000002801D0052810D0286A4008400028626A
:103CB000286AB84301E0286A30432862A0680028D7
:103CC00012D0FFF77FFA00900AE0286A3843286292
:103CD000F1E7FFF777FA0099411A5F48814249D826
:103CE000286A8007F5D50DE0FFF76CFA009006E032
:103CF000FFF768FA0099411A574881423AD8286A72
:103D00008007F5D40198002804D0E9690120000754
:103D10008143E9612078C00635D5606901280CD05F
:103D2000401D686B23D038436863686B40084000CF
:103D30006863FFF747FA064622E0686B384368631A
:103D4000686B30436863FFF73DFA064604E0FFF70F
:103D500039FA801B02285BD8686B8007F7D5686B3F
:103D6000F8218843A169C900084368630BE0B843A0
:103D70006863F4E74CE0FFF725FA801B022847D878
:103D8000686B8007F7D4206A00285ED0696809074D
:103D9000890F022942D0012636060228286805D05C
:103DA000B0432860FFF70EFA044633E0B0432860C2
:103DB000FFF708FA074604E0FFF704FAC01B0228E1
:103DC00026D828688001F7D4E86AE16A0009000172
:103DD0000843E862616AA06A084369683D221204E8
:103DE000914308436860286830432860FFF7EAF988
:103DF000044604E0FFF7E6F9001B022808D828680B
:103E00008001F7D521E0FFF7DDF9001B022801D979
:103E10000320FEBD28688001F5D416E00128F8D003
:103E20006868E96A01221204636A02409A420AD170
:103E30000907E26A090F914205D10F218904084060
:103E4000A16A884201D00120FEBD0020FEBD000015
:103E5000001002400070004088130000F8B51D46B5
:103E600016460F46040003D0E06F002802D007E09A
:103E70000120F8BD002178200155204600F096F978
:103E80002420E06720680168490849000160606AF1
:103E9000002802D0204600F017FD204600F0E4FE86
:103EA0000128E6D0206881680122920311438160D5
:103EB000216888685200904338438860710528045F
:103EC000226808431168064B1940014311602068BD
:103ED0000168012211430160204600F05BFDF8BD3E
:103EE000FFFF00FC094910B5401E884201D901209E
:103EF00010BD074C60610321081F01F02BF8002062
:103F0000A06107202061002010BD0000FFFFFF001E
:103F100000E000E070477047F8B502680446D069D9
:103F2000116893689E4D06462E4025468035002E2A
:103F300071D09C4FDE07F60F0F4037437ED0C70786
:103F400006D0CF0504D5012717626A683A436A6034
:103F5000820708D5DA0706D0276802223A626A6823
:103F600004273A436A60420708D5DA0706D0236877
:103F700004221A626A6802231A436A60020709D59A
:103F800020220A40324305D0236808221A626B6857
:103F900013436B60020509D54A0107D50122236846
:103FA000D2021A626B68202213436B606A68002A8F
:103FB00039D0800606D5880604D5A16E002901D027
:103FC00020468847686821688968490602D4282104
:103FD00008422DD0204600F049FD2168886840063F
:103FE00022D5EFF31080012282F310888A684023E3
:103FF0009A438A6080F31088606F002814D06A4961
:104000004163606FFEF7CAFF00280CD0606F416B00
:1040100008E000E012E0830610D58B060ED5A16EF5
:10402000A3E020468847F8BD2046FFF774FFF8BD9F
:104030002046FFF770FF00206860F8BD236E012B5B
:104040007ED1C3067CD5CB067AD5102313622268B5
:104050009068264640064036002848DA616F0868B6
:1040600040680004000CE8D0378B8742E5D97083A4
:104070008869202834D0EFF31080012181F3108863
:1040800011681F01B943116080F31088EFF31080AD
:10409000012181F3108821688A68520852008A60E1
:1040A00080F31088EFF31080012181F310882168DC
:1040B0008A684027BA438A6080F3108820202860ED
:1040C00000202066EFF31080012181F31088216821
:1040D0000A689A430A6080F31088606FFEF73EFF1B
:1040E00002206066308B718B401A81B234E0308BD5
:1040F000718B401A81B2708B00289ED000299CD011
:10410000EFF31080012686F310881668FF27213709
:10411000BE43166080F31088EFF31080012282F313
:1041200010882268966876087600966080F310887A
:104130002020286000202066A066EFF3108000E0B9
:104140000EE0012282F31088226815689D431560F5
:1041500080F31088022060662046FFF7DBFEF8BD82
:10416000030606D50B0604D5E16E002900D058E7FA
:10417000F8BD4006FCD54806FAD52046EFF310817D
:10418000012383F31088146840239C43146081F357
:1041900010882021C1670021C16600F001F9F8BD37
:1041A0000F08000020010004594A000810B586B02D
:1041B000044614216846FCF7E9FA1649206888424B
:1041C00026D115488269012189030A4382618269E7
:1041D0000A4005924269C9000A43426140690840A9
:1041E00005900E20009002200190002002900320F4
:1041F00003900120049009206946C006FEF704FFE1
:10420000002211461B20FFF71DFB1B20FFF70EFBB2
:1042100006B010BD003801400010024070B5802388
:104220001B58202B01D0022070BD00290BD0002A82
:1042300009D0012483682403A34206D10369002B1B
:1042400003D1CB0701D0012070BD002303660468B1
:1042500063681B020BD5EFF31083012585F31088EB
:1042600025680126B6063543256083F3108800F0E3
:1042700089FD70BD70B500681349884217D1144C90
:10428000124EA0780025315C232911D00A2914D0C0
:104290000D2912D0401CC0B2A070142801D31320E5
:1042A000A070A078012231180A48FFF7B7FF70BD4F
:1042B000657009A002F03AFD03E035540120E0707A
:1042C000A071A570EDE70000003801404E0000200D
:1042D000000000200801002053544F500A0D000038
:1042E000FFB50446C06F83B017460D46202802D0A4
:1042F000022007B0F0BD002D0BD0002F09D0012007
:10430000A1680003814206D12069002803D1E80793
:1043100001D00120EDE70021842001512120E06738
:10432000FEF750FF26464036019037827782012003
:10433000A1680003814202D12069002802D02F46E3
:10434000002511E000270FE000228021204600F028
:1043500071FD002815D1002F17D021683878088505
:104360007F1C708A401E7082708A019B002806980C
:104370000090E9D100224021204600F05BFD00289A
:104380000AD02020E0670320B3E728882168C00511
:10439000C00D0885AD1CE4E72020E0670020A8E7F9
:1043A0007047FEE701688A69D243920701D4002270
:1043B0008A6200688169C943C90703D08169012203
:1043C0001143816170470000F7B50446006882B070
:1043D000816900262746C9064037354600920029E4
:1043E00045DA1021C16132E00398401C2FD0FEF75E
:1043F000E9FE0099411A0398814201D8002826D18C
:1044000020684168012292031140BA788369DB4336
:104410001B0417D401239B03994213D0202A11D0E7
:10442000416819434160FEF7CDFE00900AE0FEF7B7
:10443000C9FE01460098081A192803D9202005430F
:10444000012604E020688069C0438006EFD420681C
:104450008069C043800602D5002EC5D004E0002E3E
:1044600002D121682020C86104200543012621686B
:104470008869C20504D5012215431202CA610126CA
:10448000410508D508210D43CA012168CA610126EA
:10449000800502D40AE0800506D502200543216884
:1044A0000002C861012601E0002E0FD02046FFF770
:1044B00079FF20684168074A11404160606C2843D9
:1044C0006064202078700020B8703870304605B0E5
:1044D000F0BD000000E800FEF8B504461646154899
:1044E0001D46DAB20090079F0023204600F054F8E2
:1044F0003A462046069900F0C9F8002818D1284607
:10450000F5B2012809D02168300A88623A4620466F
:10451000069900F0BBF800280AD120688562009750
:10452000002240212046069B00F04CF8002800D0D5
:104530000120F8BD00200080F8B504461646154855
:104540001D46DAB2C3020090079F204600F024F80F
:104550003A462046069900F099F8002818D12846D6
:10456000F5B2012809D02168300A88623A4620460F
:10457000069900F08BF800280AD120688562009720
:10458000002280212046069B00F01CF8002800D065
:104590000120F8BD00200080890510B5890D1204A6
:1045A0001143029C1943026821434900506849089D
:1045B000630D034C234398430843506010BD000033
:1045C000FF63FF03F8B51D4617460E46044626E076
:1045D00029462046069AFFF7F7FE002801D0012061
:1045E000F8BD681C1BD0FEF7EDFD0699401AA842E5
:1045F00001D8002D13D120688169304688430CD042
:104600000020B8420BD1616C20200143616440342A
:1046100060700020A0702070E1E70120F1E72068C1
:1046200081693046884304D00020B842D0D00020B1
:10463000F8BD0120F9E770B516460D4604461EE0A8
:10464000324629462046FFF7BFFE002801D0012050
:1046500070BDFEF7B7FD801BA84201D8002D0ED11A
:1046600020688069C043800609D5616C2020014321
:104670006164403460700020A0702070E7E720681B
:104680008069C0438006DBD4002070BD70B516463B
:104690000D46044620E0324629462046FFF794FEA8
:1046A000002801D0012070BD681C15D0FEF78AFDDE
:1046B000801BA84201D8002D0ED120688069C0431C
:1046C000800709D5616C202001436164403460702B
:1046D0000020A0702070E5E720688069C043800753
:1046E000D9D4002070BD000070B586B01421684692
:1046F000FCF74CF81E484269012189050A434261D2
:1047000042690A400592426949110A43426142697D
:104710000A400592426949000A4342614069032404
:1047200008400926E402F60605900022214630469C
:10473000FEF741FD0F4D0022F8212846FEF73BFD14
:104740000220029000940320012403900194694602
:104750003046FEF759FC0021F820029103910090A9
:10476000019469462846FEF74FFC06B070BD000074
:10477000001002400004004810B5134811490160C0
:104780001249416000218160016141618161012222
:10479000C161C2600162FEF765FD002801D0FEF72D
:1047A000DBFB00210848FEF713FD002801D0FEF7CF
:1047B000D3FB00210448FEF730FD002801D0FEF7AE
:1047C000CBFB10BD00540040A40000202B1D200096
:1047D00010B5084806490160042141600649C160DE
:1047E0008160FEF797FF002801D0FEF7B5FB10BDF2
:1047F00000300040F8000020FF0F000010B50E4808
:104800000C490160E1214902416000218160C160E1
:1048100001618161C1610C22016242610B4641620A
:104820000A460121C903FFF719FB002801D0FEF752
:1048300093FB10BD0038014008010020FEE77047DF
:10484000704710B5FEF7A4FF10BD30B595B030210C
:104850006846FBF79BFF00240F940B20009001207B
:104860000D940C94109412940E9411940190039052
:1048700013941021079004910004022509900895D3
:104880000A940B946846FFF725F9002801D072B608
:10489000FEE707200C900E9401210D950F940CA8B3
:1048A000FFF756F8002801D072B6FEE721201090DD
:1048B0001294139410A8FEF7D7FF002801D072B607
:1048C000FEE715B030BD704710B5818C090707D5DC
:1048D00001684A680123DB039A43436B1A434A6029
:1048E000818CC90707D001684A6801235B049A4399
:1048F000836A1A434A60818C890707D501684A6830
:1049000001231B049A43C36A1A434A60818C4907F6
:1049100007D501684A6801239B049A43036B1A4335
:104920004A60818CC90607D50268916801231B0380
:104930009943836B19439160818C890607D501687F
:104940008A6801235B039A43C36B1A438A60818C94
:10495000490612D503685A6801210905046C8A4387
:1049600022435A60026C8A4207D1026851680323CD
:104970005B059943436C19435160818C090607D547
:1049800001684A680123DB04806C9A4302434A6051
:1049900010BD0000FEB507460025803704467D6047
:1049A000FEF710FC0190206800682646000760367C
:1049B000002819DA274800900121002249052046E5
:1049C000019B00F037FA00280ED0EFF31080012190
:1049D00081F3108821680A6880239A430A6080F373
:1049E00010882020E06729E020680068400728D56B
:1049F000184800900121002289052046019B00F003
:104A000019FA00281DD0EFF31080012181F31088DE
:104A100021680A68FF2321339A430A6080F31088D3
:104A2000EFF31080012181F3108821688A68520811
:104A300052008A6080F31088202038603576032089
:104A4000FEBD2020E067386025666566357600206B
:104A5000FEBD0000FFFFFF0110B5406A00220146C5
:104A600040314A834A82FFF756FA10BD10B5EFF382
:104A70001081012282F3108802681368FF24213418
:104A8000A343136081F31088EFF31081012282F3B6
:104A90001088026893685B085B00936081F310885C
:104AA000016E01290BD1EFF31081012282F31088EE
:104AB000026813681024A343136081F31088202236
:104AC00080210A5000210166816610BD70B5014643
:104AD0004031034680338C8B1D680268222D04D040
:104AE000906908210843906170BD928C456D224009
:104AF0002A80426D921C42654A8B521E4A834A8B21
:104B0000002AF1D1EFF31082012484F310880468A5
:104B10002568FF262136B543256082F31088EFF320
:104B20001082012484F310880468A5686D086D0064
:104B3000A56082F3108820221A60002383664366F2
:104B40000468626812020BD5EFF31082012585F329
:104B5000108825680126B606B543256082F31088C3
:104B6000026E012A02D0FFF785FB70BD0366EFF3EA
:104B70001082012383F310880468256810239D4365
:104B8000256082F310880268D469E443E40600D407
:104B90001362098BFFF7BEF970BD70B50146403155
:104BA000034680338C8B1D680268222D04D09069E7
:104BB00008210843906170BD928C2240446D2270A0
:104BC000426D521C42654A8B521E4A834A8B002A10
:104BD000F1D1EFF31082012484F310880468256872
:104BE000FF262136B543256082F31088EFF310824B
:104BF000012484F310880468A5686D086D00A56021
:104C000082F3108820221A600023836643660468BA
:104C1000626812020BD5EFF31082012585F310882C
:104C200025680126B606B543256082F31088026E1A
:104C3000012A02D0FFF71EFB70BD0366EFF310825E
:104C4000012383F310880468256810239D432560A1
:104C500082F310880268D469E443E40600D4136246
:104C6000098BFFF757F970BD70B50446806821695C
:104C7000E2690843616900251143084321680A6815
:104C80003C4B1A4002430A60216848680322120321
:104C90009043E26810434860A169206A0843216894
:104CA0008A680B231B029A4302438A603248006BD6
:104CB0008007800F16D0012818D0022818D00328AA
:104CC00012D010210122E369D2032C482C4E9342CA
:104CD0002AD100290ED0022913D004290DD0082989
:104CE0003BD11FE00021EDE70221EBE70421E9E7DA
:104CF0000821E7E7FEF7B0FE01E0FEF7BDFE002861
:104D000032D0616840004A088018FBF7BBFD0146BD
:104D10001039B14221D81A49491C01400007400FFF
:104D200008431FE01046ECE7002906D002290BD00B
:104D3000042905D0082910D111E0FEF78DFE01E00D
:104D4000FEF79AFE00280FD061684A081018FBF79A
:104D500099FD01461039B14203D9012504E01046FE
:104D6000F2E780B22168C8600020A066E0662846AD
:104D700070BD0000F369FFFF0010024000127A00CE
:104D8000EFFF000030B54165014640310A834A8398
:104D900000238366012285681203FF24954204D113
:104DA0000569002D2ED1204C2CE0002D26D08B83C0
:104DB000014680314B6022230B60EFF31081012309
:104DC00083F3108803689C6801252C439C6081F361
:104DD00010888168914202D10169002914D01349D9
:104DE00081660169002911D0EFF31081012282F35D
:104DF000108800680268FF2321330FE00569002D49
:104E000000D07F248C83D3E709498166EFF31081BA
:104E1000012282F310880068026820231A4302608E
:104E200081F31088002030BDFF0100009B4B00087B
:104E3000CD4A0008FFB506468036054681B00F46CC
:104E40000446603534E00A98401C31D0FEF7BAF9C8
:104E50000499411A0A98814218D8002816D020686F
:104E60000168490724D5802F22D0402F20D0C16966
:104E7000C94309070CD4082707622046FFF7F6FD4F
:104E8000776000202876012005B0F0BD0320FBE705
:104E9000C069C04300050BD401202168C00208622C
:104EA0002046FFF7E3FD2020706000202876EDE724
:104EB0002068C1693846884305D0002103988142A3
:104EC000C1D00020E0E70121F8E7000010B502485A
:104ED000FFF722F810BD000008010020F8B5040C0F
:104EE0008BB2264682B25E430D0C1046370C5843F7
:104EF000360480190021794116466E43370C36047A
:104F00008019794126466E438919F8BD30B474463C
:104F1000641E2578641CAB4200D21D46635D5B00B5
:104F2000E31830BC184700004900CA0202431000D1
:104F300000D004204A0D01D001221043044A490D3B
:104F4000914201D102210843012800D10520704778
:104F5000FF0700008307FF22DB0E9A408907090E36
:104F60009940002808DB830809489B001B18186833
:104F700090430843186070470007000F0838830803
:104F800004489B001B18D86990430843D8617047B8
:104F900000E400E000ED00E010B50721024A002027
:104FA0000907FDF7A9FF10BD01030000034A10B572
:104FB00000201107FDF7A0FF10BD000001FDFFFF5D
:104FC00010B504460868496800F002F8206010BD7A
:104FD000F8B504460D466A4600F0A8FB00987E30FE
:104FE000009000281CDC002213462046294602F0CF
:104FF000D3F915D0264E002130460020C046074682
:1050000020462946FBF7EEFC044637403946304639
:105010000020C04660002FD10220FBF7AAFF2BE042
:105020000098FF282EDB002108460020C0460321FF
:10503000890508400646002213462046294602F00C
:105040000FFA01D8012500E000250220FBF791FFAF
:10505000FF24E405002E09D0002D02D00120800598
:1050600001E00120C005B04200D00A4C04210846EE
:105070000020C046002D01D02046F8BD0120C00709
:105080006040F8BD20462946FBF7ACFCF8BD0000A7
:1050900008080000FFFF7F7F10B504460A4600683D
:1050A000616800F08CFC6160206010BD30380A2817
:1050B00001D2012070470020704730B583B004460C
:1050C000FBF752FF05460020009002460190214662
:1050D0006846FCF727FA2846FBF74BFF0199009832
:1050E00003B030BDFEB5374CA08C81B2364800F01D
:1050F00014FCFBF729FF0190E1682069401AFBF7D7
:10510000D0FC49004908314A314B02F077F957D3B6
:10511000E7682069C01BFBF717FF00906069FBF789
:1051200013FF0646206AFBF70FFF05463846FBF7DC
:105130000BFF019902F092FA294602F09BFA3146E0
:1051400002F008FA0099FBF705FE01461E481830E8
:1051500000F00CFC0546E079002806D0E069FBF77A
:10516000F3FE294602F07AFA0546A069FBF799FC9E
:10517000064668000F464008FBF7C2FD32463B4634
:1051800002F03CF91CD3A0690646FBF78AFC0746EF
:105190000C463046FBF7D8FE01462846FBF7DAFD01
:1051A000FBF7AEFD01F068FC3A462346FBF784FCB2
:1051B000FBF718FC0749884202D80749884200DDFE
:1051C0000020FEBD00000020780000208DEDB5A07D
:1051D000F7C6B03E002474C90024744970B5044673
:1051E0001C4801250926816A90B02D03F606204649
:1051F00002F008FA25D8012229463046FDF7DBFFE8
:10520000062215A1164802F049F81648844209DB27
:1052100015492046FBF79EFDFBF772FD13A2019195
:10522000009005E02046FBF76BFD15A20191009070
:10523000322102A8FBF7AEF802A801F077FD10B00A
:1052400070BD002229463046FDF7B5FF204600F02C
:1052500087F9F4E700000020202020204F4C0000B8
:105260006400002000401C4600007A444F5645521E
:105270004C4F41443A252E3266206B670A0D0000E0
:105280004F5645524C4F41443A252E3266206772A4
:10529000616D730A0D0000001CB5002100910B46E2
:1052A00001910622694601F0E9FF1CBD00B503002B
:1052B000FFF72CFE07110507090B0D0F1100042045
:1052C00000BD022000BD012000BD202000BD102037
:1052D00000BD082000BD002000BD0000F0B5104951
:1052E000074685B003C902AE03C60025083E002468
:1052F000305D6946087048708870C87008714871E0
:1053000003230622384601F0B9FF3220FDF76AFE7A
:10531000641C062CECDB6D1C022DE8DB05B0F0BD37
:10532000BC7700081CB50446072208A1FBF7C0F9AA
:1053300000280AD1E31D07A207216846FBF72AF8D7
:1053400006226946054801F0A9FF1CBD41542B43C4
:10535000414C3D00434C25730000000064000020D8
:10536000F1B584B011A103C902AF042403C7E4431B
:1053700000256E46083F0095002001952118082958
:1053800002D2795C315400E03554401C0628F5DB2C
:10539000032306226946049801F070FF9620FDF76A
:1053A00021FE641C082CE6DB05B0F0BD733F545EA3
:1053B000795077001CB50446062208A1FBF778F95E
:1053C00000280AD1A31D07A207216846FAF7E2FFC9
:1053D00006226946054801F061FF1CBD41542B447B
:1053E000503D000044502020257300006400002040
:1053F0001CB50446072208A1FBF75AF900280AD178
:10540000E31D07A207216846FAF7C4FF0622694692
:10541000054801F043FF1CBD41542B494E543D004B
:10542000494E542025730000640000203EB5044618
:10543000082209A1FBF73CF900280BD123460833C9
:1054400008A209216846FAF7A5FF0622694607481F
:1054500001F024FF3EBD000041542B4D4F44453D1B
:10546000000000004D4F44452573000064000020FB
:105470001CB5062207A1FBF71BF9002809D107A2DA
:1054800007216846FAF786FF06226946054801F0BB
:1054900005FF1CBD41542B52535400005245534547
:1054A00054000000640000201CB50446072208A137
:1054B000FBF7FEF800280AD1E31D07A20721684682
:1054C000FAF768FF06226946054801F0E7FE1CBDB1
:1054D00041542B53414D3D0053414D202573000055
:1054E000640000201CB5831D05A208216846FAF758
:1054F00051FF06226946044801F0D0FE1CBD0000A1
:10550000545225730000000064000020F1B58AB0F9
:10551000242211496846FAF73DFEFF276E462D37D3
:105520000E4D14E000240DE0062060438119032392
:1055300006220A9801F0A2FE3846FDF753FD641CCE
:10554000062C04DA28780028EED00BB0F0BD2878BD
:105550000028E7D0F9E70000D07700080600002017
:105560001FB500210291144A03911449904207DBB0
:10557000FBF7F0FBFBF7C4FB11A20191009008E0E0
:1055800088420BDBFBF7E6FBFBF7BAFB0FA20191AE
:105590000090072102A8FAF7FDFE07E0FBF78AFC5E
:1055A00003460CA2072102A8FAF7F4FEC2B202A930
:1055B0000A4801F073FE1FBD0050C34700007A4443
:1055C000252E31662020202000000000252E336685
:1055D00020200000256420202020200064000020DE
:1055E00030B589B020220AA16846FAF7D3FD00241D
:1055F00001256D02A0B264232022694600F046F81E
:10560000002803D02034AC42F4D3012009B030BDCF
:10561000FFFFFFFFFFFFFFFFFFFFFFFFFFFFFFFF9A
:10562000FFFFFFFFFFFFFFFFFFFFFFFFFFFFFFFF8A
:1056300010B564230222A0210448FDF771FE002862
:1056400001D0002010BD012010BD0000A4000020EA
:105650003EB50C4C2378012B0FD00123237064231B
:1056600092B26D460EC502460123A0210648FDF701
:10567000D1FE00210028217001D000203EBD012074
:105680003EBD000040000020A4000020FFB50646FB
:105690001D480F46017885B01546012918D0012113
:1056A0000170FDF78FFD03907107490F0820441A20
:1056B000AC4200D9ACB26420029001233246A02152
:1056C000009701941148FDF74DFF002803D012E028
:1056D000002009B0F0BD0A20FDF784FC30192D1B15
:1056E0003F1986B2002D0AD0FDF76CFD0399411ACF
:1056F00008988142D8D3044900200870E8E702499D
:10570000002008700120E4E740000020A4000020F1
:1057100013B5044B012269460348FEF7E1FD0098EA
:105720001CBD0000FFFF00000801002070B51446FA
:10573000002222604B000F4A5B08934219DA0246AE
:105740001A4316D001221205934201DB226807E0BA
:105750003622FDF7D1FB4B005B083522D243226095
:10576000054D1B0D5B19D2182260044A1140044AF2
:10577000891870BD0000F07F02FCFFFFFFFF0F8063
:105780000000E03FF8B50C461F4615460646A2420B
:105790000DDD281BFBF7D8FB3946FBF7DBFAF4607D
:1057A000024630612946204601F0BDF9F8BD02A04D
:1057B00001F0BCFAF8BD00004572726F723A204CDD
:1057C0006F61642076616C7565206D7573742062FD
:1057D000652067726561746572207468616E206E01
:1057E0006F6C6F61642E0A0D000000000420401EE3
:1057F00000BF00BF00BF00BF0028F8D17047FFB551
:1058000085B0164604460E9F00F036F806982060D4
:10581000268108986060678114216846FAF7B6FF10
:10582000012001900320002503900295694600960F
:105830000698FDF7E9FB0120029069460097019563
:105840000898FDF7E1FB218901222068FDF7B3FCF0
:105850000A20FDF7C7FB218900222068FDF7ABFC79
:105860000A20FDF7BFFB204600F012F8204600F0AA
:105870000FF8257509B0F0BD10B5044602E001200F
:10588000FDF7B0FB207D0028F9D10120207510BD67
:1058900070B504460025FDF795FC064609E0012099
:1058A000FDF7A0FBFDF78EFC801B962801D9002098
:1058B00070BD61896068FDF779FC0128EFD0002692
:1058C000218901222068FDF776FCFFF78FFF2189EF
:1058D00000222068FDF76FFCFFF788FF6D006189EB
:1058E0006068FDF763FC012800D16D1C761C76B260
:1058F000182EE5DB0120C0054540218901222068E2
:10590000FDF759FCFFF772FF218900222068FDF79F
:1059100052FCFFF76BFF284670BDF3B581B00F4610
:105920000198FFF7A9FF00252C462E460CE00198B0
:10593000FFF7AEFFC2172146451914464C4105201A
:10594000FDF750FB761CB6B2BE42F0D300263A46B5
:10595000334628462146FAF755FC01990E75FEBDDF
:1059600010B5029CC260816018C010BDF3B54768D5
:105970000446C16881B0384601F0A6FD01463846AC
:10598000FBF7E8F92061256806462946029801F0F0
:1059900071FE314601F0DEFD294601F095FD054618
:1059A00020607F203146C00501F064FE394601F0D9
:1059B000D1FDA16801F088FD60602846FEBD70B58C
:1059C0000546080DC04316460C4640052CD0002263
:1059D0001346284601F0E0FC26D0324628462146F0
:1059E000FDF78AFA0546080DC0430C46400510D065
:1059F00000221346284601F0CFFC15D10220FBF708
:105A0000B8FAFFF7D3FA49004908E20FD207114369
:105A100070BD0220FBF7ADFAFFF7BEFA4900490856
:105A2000E20FD207114370BD2846214670BD00B574
:105A30002D380300FFF76AFA2E4C50523836181AE8
:105A40001C3E1E2022245252524E52525226282AC6
:105A50002C2E305232365252344446383A523C3E62
:105A6000404A4A52524248525B2000BD4F2000BD7E
:105A7000662000BD7D2000BD072000BD7F2000BD49
:105A80006F2000BD772000BD7C2000BD392000BD07
:105A90005E2000BD792000BD712000BD762000BDD4
:105AA000382000BD062000BD3F2000BD732000BD92
:105AB000502000BD6D2000BD782000BD6E2000BDCF
:105AC000552000BD372000BD492000BD3E2000BD4F
:105AD000402000BD482000BD802000BD002000BD4A
